S01700004763634170706C69636174696F6E342E7372656358
S113000019C029C027C026C025C024C023C022C0CF
S113001021C020C01FC03DC01DC01CC071C01AC07B
S113002019C018C017C016C015C014C013C012C020
S113003011C010C011241FBECFEFD2E0DEBFCDBF70
S113004021E0A0E0B1E001C01D92A530B207E1F7C4
S113005084D0E1C0D5CF1F920F920FB60F92112416
S11300608F939F934A990EC08CEC94E00197F1F71B
S113007000C000004A9906C081E090E0909301011D
S1130080809300019F918F910F900FBE0F901F904E
S113009018951F920F920FB60F9211248F939F936E
S11300A080918800909189004E9791F482E090E0CD
S11300B09093890080938800459A409A439A429A83
S11300C0419A599A289A589A449A2A9A299A11C074
S11300D08EE190E090938900809388004598409841
S11300E043984298419859982898589844982A983F
S11300F029989F918F910F900FBE0F901F90189584
S11301001F920F920FB60F9211248F9380910301C7
S11301108F5F80930301809102018C3338F08091CA
S113012003018F5F80930301109202018091030108
S11301308C3338F0809104018F5F80930401109216
S1130140030180910401883110F0109204018F9111
S11301500F900FBE0F901F901895F8948FE184B9FB
S11301608FE387B983EE8AB98BB18C618BB98AE04E
S1130170809369008DB383608DBB85B5846085BD34
S11301808FE787BD84B5826084BDEEE6F0E08081B0
S113019082608083E1E8F0E0808185608083EFE61F
S11301A0F0E08081826080838EE190E0909389000A
S11301B080938800E0E8F0E0808188608083789410
S11301C04B9913C08CEC94E00197F1F700C0000048
S11301D04B990BC0809103018F5F80930301809141
S11301E00301883110F0109203014C99E9CF8CEC93
S11301F094E00197F1F700C000004C99E1CF8091A1
S113020003018F5F80930301809103018C33C0F25B
S10D021010920301D5CFF894FFCF3C
S9030000FC
